{
  "_format": "hh-sol-artifact-1",
  "contractName": "SeeChainShipments",
  "sourceName": "contracts/SeeChainShipments.sol",
  "abi": [
    {
      "inputs": [],
      "stateMutability": "nonpayable",
      "type": "constructor"
    },
    {
      "anonymous": false,
      "inputs": [
        {
          "indexed": true,
          "internalType": "address",
          "name": "worker",
          "type": "address"
        }
      ],
      "name": "CustomsWorkerAdded",
      "type": "event"
    },
    {
      "anonymous": false,
      "inputs": [
        {
          "indexed": true,
          "internalType": "address",
          "name": "worker",
          "type": "address"
        }
      ],
      "name": "CustomsWorkerRemoved",
      "type": "event"
    },
    {
      "anonymous": false,
      "inputs": [
        {
          "indexed": true,
          "internalType": "bytes32",
          "name": "shipmentId",
          "type": "bytes32"
        },
        {
          "indexed": true,
          "internalType": "address",
          "name": "creator",
          "type": "address"
        }
      ],
      "name": "ShipmentCreated",
      "type": "event"
    },
    {
      "anonymous": false,
      "inputs": [
        {
          "indexed": true,
          "internalType": "bytes32",
          "name": "shipmentId",
          "type": "bytes32"
        },
        {
          "indexed": false,
          "internalType": "string",
          "name": "status",
          "type": "string"
        },
        {
          "indexed": true,
          "internalType": "address",
          "name": "updater",
          "type": "address"
        }
      ],
      "name": "StatusUpdated",
      "type": "event"
    },
    {
      "inputs": [
        {
          "internalType": "address",
          "name": "worker",
          "type": "address"
        }
      ],
      "name": "addCustomsWorker",
      "outputs": [],
      "stateMutability": "nonpayable",
      "type": "function"
    },
    {
      "inputs": [
        {
          "internalType": "uint256",
          "name": "",
          "type": "uint256"
        }
      ],
      "name": "allShipmentIds",
      "outputs": [
        {
          "internalType": "bytes32",
          "name": "",
          "type": "bytes32"
        }
      ],
      "stateMutability": "view",
      "type": "function"
    },
    {
      "inputs": [
        {
          "internalType": "bytes32",
          "name": "shipmentId",
          "type": "bytes32"
        },
        {
          "internalType": "string",
          "name": "origin",
          "type": "string"
        },
        {
          "internalType": "string",
          "name": "destination",
          "type": "string"
        },
        {
          "internalType": "string",
          "name": "idString",
          "type": "string"
        }
      ],
      "name": "createShipment",
      "outputs": [],
      "stateMutability": "nonpayable",
      "type": "function"
    },
    {
      "inputs": [],
      "name": "getAllShipmentIds",
      "outputs": [
        {
          "internalType": "bytes32[]",
          "name": "",
          "type": "bytes32[]"
        }
      ],
      "stateMutability": "view",
      "type": "function"
    },
    {
      "inputs": [],
      "name": "getAllShipments",
      "outputs": [
        {
          "components": [
            {
              "internalType": "string",
              "name": "idString",
              "type": "string"
            },
            {
              "internalType": "string",
              "name": "origin",
              "type": "string"
            },
            {
              "internalType": "string",
              "name": "destination",
              "type": "string"
            },
            {
              "internalType": "address",
              "name": "creator",
              "type": "address"
            },
            {
              "components": [
                {
                  "internalType": "uint256",
                  "name": "timestamp",
                  "type": "uint256"
                },
                {
                  "internalType": "string",
                  "name": "status",
                  "type": "string"
                },
                {
                  "internalType": "address",
                  "name": "updater",
                  "type": "address"
                }
              ],
              "internalType": "struct SeeChainShipments.LogEntry[]",
              "name": "logs",
              "type": "tuple[]"
            }
          ],
          "internalType": "struct SeeChainShipments.Shipment[]",
          "name": "",
          "type": "tuple[]"
        }
      ],
      "stateMutability": "view",
      "type": "function"
    },
    {
      "inputs": [
        {
          "internalType": "bytes32",
          "name": "shipmentId",
          "type": "bytes32"
        }
      ],
      "name": "getShipmentLogs",
      "outputs": [
        {
          "components": [
            {
              "internalType": "uint256",
              "name": "timestamp",
              "type": "uint256"
            },
            {
              "internalType": "string",
              "name": "status",
              "type": "string"
            },
            {
              "internalType": "address",
              "name": "updater",
              "type": "address"
            }
          ],
          "internalType": "struct SeeChainShipments.LogEntry[]",
          "name": "",
          "type": "tuple[]"
        }
      ],
      "stateMutability": "view",
      "type": "function"
    },
    {
      "inputs": [
        {
          "internalType": "address",
          "name": "user",
          "type": "address"
        }
      ],
      "name": "isCustoms",
      "outputs": [
        {
          "internalType": "bool",
          "name": "",
          "type": "bool"
        }
      ],
      "stateMutability": "view",
      "type": "function"
    },
    {
      "inputs": [
        {
          "internalType": "address",
          "name": "",
          "type": "address"
        }
      ],
      "name": "isCustomsWorker",
      "outputs": [
        {
          "internalType": "bool",
          "name": "",
          "type": "bool"
        }
      ],
      "stateMutability": "view",
      "type": "function"
    },
    {
      "inputs": [],
      "name": "owner",
      "outputs": [
        {
          "internalType": "address",
          "name": "",
          "type": "address"
        }
      ],
      "stateMutability": "view",
      "type": "function"
    },
    {
      "inputs": [
        {
          "internalType": "address",
          "name": "worker",
          "type": "address"
        }
      ],
      "name": "removeCustomsWorker",
      "outputs": [],
      "stateMutability": "nonpayable",
      "type": "function"
    },
    {
      "inputs": [
        {
          "internalType": "bytes32",
          "name": "",
          "type": "bytes32"
        }
      ],
      "name": "shipments",
      "outputs": [
        {
          "internalType": "string",
          "name": "idString",
          "type": "string"
        },
        {
          "internalType": "string",
          "name": "origin",
          "type": "string"
        },
        {
          "internalType": "string",
          "name": "destination",
          "type": "string"
        },
        {
          "internalType": "address",
          "name": "creator",
          "type": "address"
        }
      ],
      "stateMutability": "view",
      "type": "function"
    },
    {
      "inputs": [
        {
          "internalType": "bytes32",
          "name": "shipmentId",
          "type": "bytes32"
        },
        {
          "internalType": "string",
          "name": "newStatus",
          "type": "string"
        }
      ],
      "name": "updateShipmentStatus",
      "outputs": [],
      "stateMutability": "nonpayable",
      "type": "function"
    }
  ],
  "bytecode": "0x6080604052348015600f57600080fd5b50336000806101000a81548173ffffffffffffffffffffffffffffffffffffffff021916908373ffffffffffffffffffffffffffffffffffffffff1602179055506122728061005f6000396000f3fe608060405234801561001057600080fd5b50600436106100b45760003560e01c8063893ee69d11610071578063893ee69d146101a15780638da5cb5b146101bd578063b320c19e146101db578063d0dabd85146101f7578063d87b404114610227578063e950cca31461025a576100b4565b80633307602e146100b95780633c20a8be146100d7578063441b681f1461010757806345d5830714610137578063494dad6c146101535780637792d35f14610171575b600080fd5b6100c1610276565b6040516100ce919061140f565b60405180910390f35b6100f160048036038101906100ec9190611499565b6102ce565b6040516100fe91906114e1565b60405180910390f35b610121600480360381019061011c9190611528565b6102ee565b60405161012e919061171f565b60405180910390f35b610151600480360381019061014c9190611499565b610455565b005b61015b610581565b6040516101689190611914565b60405180910390f35b61018b60048036038101906101869190611962565b6109bc565b604051610198919061199e565b60405180910390f35b6101bb60048036038101906101b69190611a1e565b6109e0565b005b6101c5610cd0565b6040516101d29190611af6565b60405180910390f35b6101f560048036038101906101f09190611b11565b610cf4565b005b610211600480360381019061020c9190611499565b610f98565b60405161021e91906114e1565b60405180910390f35b610241600480360381019061023c9190611528565b610fee565b6040516102519493929190611bbb565b60405180910390f35b610274600480360381019061026f9190611499565b6111d6565b005b606060028054806020026020016040519081016040528092919081815260200182805480156102c457602002820191906000526020600020905b8154815260200190600101908083116102b0575b5050505050905090565b60036020528060005260406000206000915054906101000a900460ff1681565b606060016000838152602001908152602001600020600401805480602002602001604051908101604052809291908181526020016000905b8282101561044a57838290600052602060002090600302016040518060600160405290816000820154815260200160018201805461036390611c44565b80601f016020809104026020016040519081016040528092919081815260200182805461038f90611c44565b80156103dc5780601f106103b1576101008083540402835291602001916103dc565b820191906000526020600020905b8154815290600101906020018083116103bf57829003601f168201915b505050505081526020016002820160009054906101000a900473ffffffffffffffffffffffffffffffffffffffff1673ffffffffffffffffffffffffffffffffffffffff1673ffffffffffffffffffffffffffffffffffffffff168152505081526020019060010190610326565b505050509050919050565b60008054906101000a900473ffffffffffffffffffffffffffffffffffffffff1673ffffffffffffffffffffffffffffffffffffffff163373ffffffffffffffffffffffffffffffffffffffff16146104e3576040517f08c379a00000000000000000000000000000000000000000000000000000000081526004016104da90611cc1565b60405180910390fd5b6000600360008373ffffffffffffffffffffffffffffffffffffffff1673ffffffffffffffffffffffffffffffffffffffff16815260200190815260200160002060006101000a81548160ff0219169083151502179055508073ffffffffffffffffffffffffffffffffffffffff167faf0eb831935b85870a943ca44fbd0a8e08c458e4a3a0ece65e738c6433783f8e60405160405180910390a250565b6060600060028054905067ffffffffffffffff8111156105a4576105a3611ce1565b5b6040519080825280602002602001820160405280156105dd57816020015b6105ca611302565b8152602001906001900390816105c25790505b50905060005b6002805490508110156109b457600160006002838154811061060857610607611d10565b5b906000526020600020015481526020019081526020016000206040518060a001604052908160008201805461063c90611c44565b80601f016020809104026020016040519081016040528092919081815260200182805461066890611c44565b80156106b55780601f1061068a576101008083540402835291602001916106b5565b820191906000526020600020905b81548152906001019060200180831161069857829003601f168201915b505050505081526020016001820180546106ce90611c44565b80601f01602080910402602001604051908101604052809291908181526020018280546106fa90611c44565b80156107475780601f1061071c57610100808354040283529160200191610747565b820191906000526020600020905b81548152906001019060200180831161072a57829003601f168201915b5050505050815260200160028201805461076090611c44565b80601f016020809104026020016040519081016040528092919081815260200182805461078c90611c44565b80156107d95780601f106107ae576101008083540402835291602001916107d9565b820191906000526020600020905b8154815290600101906020018083116107bc57829003601f168201915b505050505081526020016003820160009054906101000a900473ffffffffffffffffffffffffffffffffffffffff1673ffffffffffffffffffffffffffffffffffffffff1673ffffffffffffffffffffffffffffffffffffffff16815260200160048201805480602002602001604051908101604052809291908181526020016000905b8282101561098157838290600052602060002090600302016040518060600160405290816000820154815260200160018201805461089a90611c44565b80601f01602080910402602001604051908101604052809291908181526020018280546108c690611c44565b80156109135780601f106108e857610100808354040283529160200191610913565b820191906000526020600020905b8154815290600101906020018083116108f657829003601f168201915b505050505081526020016002820160009054906101000a900473ffffffffffffffffffffffffffffffffffffffff1673ffffffffffffffffffffffffffffffffffffffff1673ffffffffffffffffffffffffffffffffffffffff16815250508152602001906001019061085d565b505050508152505082828151811061099c5761099b611d10565b5b602002602001018190525080806001019150506105e3565b508091505090565b600281815481106109cc57600080fd5b906000526020600020016000915090505481565b600073ffffffffffffffffffffffffffffffffffffffff166001600089815260200190815260200160002060030160009054906101000a900473ffffffffffffffffffffffffffffffffffffffff1673ffffffffffffffffffffffffffffffffffffffff1614610a85576040517f08c379a0000000000000000000000000000000000000000000000000000000008152600401610a7c90611d8b565b60405180910390fd5b8181600160008a81526020019081526020016000206000019182610aaa929190611f62565b508585600160008a81526020019081526020016000206001019182610ad0929190611f62565b508383600160008a81526020019081526020016000206002019182610af6929190611f62565b50336001600089815260200190815260200160002060030160006101000a81548173ffffffffffffffffffffffffffffffffffffffff021916908373ffffffffffffffffffffffffffffffffffffffff1602179055506001600088815260200190815260200160002060040160405180606001604052804281526020016040518060400160405280600781526020017f437265617465640000000000000000000000000000000000000000000000000081525081526020013373ffffffffffffffffffffffffffffffffffffffff168152509080600181540180825580915050600190039060005260206000209060030201600090919091909150600082015181600001556020820151816001019081610c109190612032565b5060408201518160020160006101000a81548173ffffffffffffffffffffffffffffffffffffffff021916908373ffffffffffffffffffffffffffffffffffffffff160217905550505060028790806001815401808255809150506001900390600052602060002001600090919091909150553373ffffffffffffffffffffffffffffffffffffffff16877feafcb7522e85d9eae0c24efc5e90663c353188cffaaee33e50b023cb4a1957eb60405160405180910390a350505050505050565b60008054906101000a900473ffffffffffffffffffffffffffffffffffffffff1681565b600360003373ffffffffffffffffffffffffffffffffffffffff1673ffffffffffffffffffffffffffffffffffffffff16815260200190815260200160002060009054906101000a900460ff16610d80576040517f08c379a0000000000000000000000000000000000000000000000000000000008152600401610d7790612150565b60405180910390fd5b600073ffffffffffffffffffffffffffffffffffffffff166001600085815260200190815260200160002060030160009054906101000a900473ffffffffffffffffffffffffffffffffffffffff1673ffffffffffffffffffffffffffffffffffffffff1603610e25576040517f08c379a0000000000000000000000000000000000000000000000000000000008152600401610e1c906121bc565b60405180910390fd5b60016000848152602001908152602001600020600401604051806060016040528042815260200184848080601f016020809104026020016040519081016040528093929190818152602001838380828437600081840152601f19601f8201169050808301925050505050505081526020013373ffffffffffffffffffffffffffffffffffffffff168152509080600181540180825580915050600190039060005260206000209060030201600090919091909150600082015181600001556020820151816001019081610ef89190612032565b5060408201518160020160006101000a81548173ffffffffffffffffffffffffffffffffffffffff021916908373ffffffffffffffffffffffffffffffffffffffff16021790555050503373ffffffffffffffffffffffffffffffffffffffff16837f8905a245f6819a54685dc4eea1aa49a7278f9b016d27d8eff8d3c48a269622908484604051610f8b929190612218565b60405180910390a3505050565b6000600360008373ffffffffffffffffffffffffffffffffffffffff1673ffffffffffffffffffffffffffffffffffffffff16815260200190815260200160002060009054906101000a900460ff169050919050565b600160205280600052604060002060009150905080600001805461101190611c44565b80601f016020809104026020016040519081016040528092919081815260200182805461103d90611c44565b801561108a5780601f1061105f5761010080835404028352916020019161108a565b820191906000526020600020905b81548152906001019060200180831161106d57829003601f168201915b50505050509080600101805461109f90611c44565b80601f01602080910402602001604051908101604052809291908181526020018280546110cb90611c44565b80156111185780601f106110ed57610100808354040283529160200191611118565b820191906000526020600020905b8154815290600101906020018083116110fb57829003601f168201915b50505050509080600201805461112d90611c44565b80601f016020809104026020016040519081016040528092919081815260200182805461115990611c44565b80156111a65780601f1061117b576101008083540402835291602001916111a6565b820191906000526020600020905b81548152906001019060200180831161118957829003601f168201915b5050505050908060030160009054906101000a900473ffffffffffffffffffffffffffffffffffffffff16905084565b60008054906101000a900473ffffffffffffffffffffffffffffffffffffffff1673ffffffffffffffffffffffffffffffffffffffff163373ffffffffffffffffffffffffffffffffffffffff1614611264576040517f08c379a000000000000000000000000000000000000000000000000000000000815260040161125b90611cc1565b60405180910390fd5b6001600360008373ffffffffffffffffffffffffffffffffffffffff1673ffffffffffffffffffffffffffffffffffffffff16815260200190815260200160002060006101000a81548160ff0219169083151502179055508073ffffffffffffffffffffffffffffffffffffffff167fa296fc46c5aed8ae919bda9ea50754eaee608427c11af607a78579961265ee4660405160405180910390a250565b6040518060a00160405280606081526020016060815260200160608152602001600073ffffffffffffffffffffffffffffffffffffffff168152602001606081525090565b600081519050919050565b600082825260208201905092915050565b6000819050602082019050919050565b6000819050919050565b61138681611373565b82525050565b6000611398838361137d565b60208301905092915050565b6000602082019050919050565b60006113bc82611347565b6113c68185611352565b93506113d183611363565b8060005b838110156114025781516113e9888261138c565b97506113f4836113a4565b9250506001810190506113d5565b5085935050505092915050565b6000602082019050818103600083015261142981846113b1565b905092915050565b600080fd5b600080fd5b600073ffffffffffffffffffffffffffffffffffffffff82169050919050565b60006114668261143b565b9050919050565b6114768161145b565b811461148157600080fd5b50565b6000813590506114938161146d565b92915050565b6000602082840312156114af576114ae611431565b5b60006114bd84828501611484565b91505092915050565b60008115159050919050565b6114db816114c6565b82525050565b60006020820190506114f660008301846114d2565b92915050565b61150581611373565b811461151057600080fd5b50565b600081359050611522816114fc565b92915050565b60006020828403121561153e5761153d611431565b5b600061154c84828501611513565b91505092915050565b600081519050919050565b600082825260208201905092915050565b6000819050602082019050919050565b6000819050919050565b61159481611581565b82525050565b600081519050919050565b600082825260208201905092915050565b60005b838110156115d45780820151818401526020810190506115b9565b60008484015250505050565b6000601f19601f8301169050919050565b60006115fc8261159a565b61160681856115a5565b93506116168185602086016115b6565b61161f816115e0565b840191505092915050565b6116338161145b565b82525050565b6000606083016000830151611651600086018261158b565b506020830151848203602086015261166982826115f1565b915050604083015161167e604086018261162a565b508091505092915050565b60006116958383611639565b905092915050565b6000602082019050919050565b60006116b582611555565b6116bf8185611560565b9350836020820285016116d185611571565b8060005b8581101561170d57848403895281516116ee8582611689565b94506116f98361169d565b925060208a019950506001810190506116d5565b50829750879550505050505092915050565b6000602082019050818103600083015261173981846116aa565b905092915050565b600081519050919050565b600082825260208201905092915050565b6000819050602082019050919050565b600082825260208201905092915050565b600061178982611555565b611793818561176d565b9350836020820285016117a585611571565b8060005b858110156117e157848403895281516117c28582611689565b94506117cd8361169d565b925060208a019950506001810190506117a9565b50829750879550505050505092915050565b600060a083016000830151848203600086015261181082826115f1565b9150506020830151848203602086015261182a82826115f1565b9150506040830151848203604086015261184482826115f1565b9150506060830151611859606086018261162a565b5060808301518482036080860152611871828261177e565b9150508091505092915050565b600061188a83836117f3565b905092915050565b6000602082019050919050565b60006118aa82611741565b6118b4818561174c565b9350836020820285016118c68561175d565b8060005b8581101561190257848403895281516118e3858261187e565b94506118ee83611892565b925060208a019950506001810190506118ca565b50829750879550505050505092915050565b6000602082019050818103600083015261192e818461189f565b905092915050565b61193f81611581565b811461194a57600080fd5b50565b60008135905061195c81611936565b92915050565b60006020828403121561197857611977611431565b5b60006119868482850161194d565b91505092915050565b61199881611373565b82525050565b60006020820190506119b3600083018461198f565b92915050565b600080fd5b600080fd5b600080fd5b60008083601f8401126119de576119dd6119b9565b5b8235905067ffffffffffffffff8111156119fb576119fa6119be565b5b602083019150836001820283011115611a1757611a166119c3565b5b9250929050565b60008060008060008060006080888a031215611a3d57611a3c611431565b5b6000611a4b8a828b01611513565b975050602088013567ffffffffffffffff811115611a6c57611a6b611436565b5b611a788a828b016119c8565b9650965050604088013567ffffffffffffffff811115611a9b57611a9a611436565b5b611aa78a828b016119c8565b9450945050606088013567ffffffffffffffff811115611aca57611ac9611436565b5b611ad68a828b016119c8565b925092505092959891949750929550565b611af08161145b565b82525050565b6000602082019050611b0b6000830184611ae7565b92915050565b600080600060408486031215611b2a57611b29611431565b5b6000611b3886828701611513565b935050602084013567ffffffffffffffff811115611b5957611b58611436565b5b611b65868287016119c8565b92509250509250925092565b600082825260208201905092915050565b6000611b8d8261159a565b611b978185611b71565b9350611ba78185602086016115b6565b611bb0816115e0565b840191505092915050565b60006080820190508181036000830152611bd58187611b82565b90508181036020830152611be98186611b82565b90508181036040830152611bfd8185611b82565b9050611c0c6060830184611ae7565b95945050505050565b7f4e487b7100000000000000000000000000000000000000000000000000000000600052602260045260246000fd5b60006002820490506001821680611c5c57607f821691505b602082108103611c6f57611c6e611c15565b5b50919050565b7f4e6f7420636f6e7472616374206f776e65720000000000000000000000000000600082015250565b6000611cab601283611b71565b9150611cb682611c75565b602082019050919050565b60006020820190508181036000830152611cda81611c9e565b9050919050565b7f4e487b7100000000000000000000000000000000000000000000000000000000600052604160045260246000fd5b7f4e487b7100000000000000000000000000000000000000000000000000000000600052603260045260246000fd5b7f536869706d656e7420616c726561647920657869737473000000000000000000600082015250565b6000611d75601783611b71565b9150611d8082611d3f565b602082019050919050565b60006020820190508181036000830152611da481611d68565b9050919050565b600082905092915050565b60008190508160005260206000209050919050565b60006020601f8301049050919050565b600082821b905092915050565b600060088302611e187fffffffffffffffffffffffffffffffffffffffffffffffffffffffffffffffff82611ddb565b611e228683611ddb565b95508019841693508086168417925050509392505050565b6000819050919050565b6000611e5f611e5a611e5584611581565b611e3a565b611581565b9050919050565b6000819050919050565b611e7983611e44565b611e8d611e8582611e66565b848454611de8565b825550505050565b600090565b611ea2611e95565b611ead818484611e70565b505050565b5b81811015611ed157611ec6600082611e9a565b600181019050611eb3565b5050565b601f821115611f1657611ee781611db6565b611ef084611dcb565b81016020851015611eff578190505b611f13611f0b85611dcb565b830182611eb2565b50505b505050565b600082821c905092915050565b6000611f3960001984600802611f1b565b1980831691505092915050565b6000611f528383611f28565b9150826002028217905092915050565b611f6c8383611dab565b67ffffffffffffffff811115611f8557611f84611ce1565b5b611f8f8254611c44565b611f9a828285611ed5565b6000601f831160018114611fc95760008415611fb7578287013590505b611fc18582611f46565b865550612029565b601f198416611fd786611db6565b60005b82811015611fff57848901358255600182019150602085019450602081019050611fda565b8683101561201c5784890135612018601f891682611f28565b8355505b6001600288020188555050505b50505050505050565b61203b8261159a565b67ffffffffffffffff81111561205457612053611ce1565b5b61205e8254611c44565b612069828285611ed5565b600060209050601f83116001811461209c576000841561208a578287015190505b6120948582611f46565b8655506120fc565b601f1984166120aa86611db6565b60005b828110156120d2578489015182556001820191506020850194506020810190506120ad565b868310156120ef57848901516120eb601f891682611f28565b8355505b6001600288020188555050505b505050505050565b7f4e6f74206120637573746f6d7320776f726b6572000000000000000000000000600082015250565b600061213a601483611b71565b915061214582612104565b602082019050919050565b600060208201905081810360008301526121698161212d565b9050919050565b7f536869706d656e7420646f6573206e6f74206578697374000000000000000000600082015250565b60006121a6601783611b71565b91506121b182612170565b602082019050919050565b600060208201905081810360008301526121d581612199565b9050919050565b82818337600083830152505050565b60006121f78385611b71565b93506122048385846121dc565b61220d836115e0565b840190509392505050565b600060208201905081810360008301526122338184866121eb565b9050939250505056fea26469706673582212206cc55ded62a57842a7e1fd23f4aeba331e849aa8fbc8924489ca9cdbb6470f2f64736f6c634300081c0033",
  "linkReferences": {},
  "deployedLinkReferences": {}
}